:020000040800F2
:1000000000200020D5010008DD010008E101000802
:1000100000000000000000000000000000000000E0
:1000200000000000000000000000000015020008B1
:100030000000000000000000190200081D02000876
:1000400025020008250200082502000825020008F4
:1000500025020008490800082109000825020008B7
:1000600025020008250200082502000825020008D4
:100070002502000825020008250200081D080008C6
:1000800025020008250200080000000025020008E3
:1000900025020008250200082502000825020008A4
:1000A0002502000825020008250200082502000894
:1000B00025020008000000002502000830B583B0CA
:1000C00000F038FA314B324A1360324A1360324B37
:1000D000324A03E0116819600433043230498B421C
:1000E000F8D32B4B1A682F4B9A4204D1294B1A682C
:1000F0002D4B9A4200D0FEE7244B2C4A13602C4A29
:1001000013602C4B02E000221A6004332A4A934207
:10011000F9D3264B1B68002B03D1254B1B68002B02
:1001200000D0FEE700F062FA694601A800F068F925
:10013000224C234B1C1BA410002504E0AA001F4BDB
:10014000D35898470135AC42F8DC1E4C1E4B1C1BA3
:10015000A410002504E0AA001A4BD3589847013593
:10016000AC42F8DC0099019800F0F2FA0500174C57
:10017000174B1C1BA41004E0013CA200134BD358E6
:100180009847002CF8DC280000F016F9BABADECA4D
:10019000000000207C00002000000020B0240008A7
:1001A0008000002078563412325476988000002067
:1001B00028010020800000202C01002050020008AF
:1001C00050020008500200085002000850020008C7
:1001D0005002000810B5FFF771FFC04600BEFEE7F1
:1001E00004207146084202D0EFF3098001E0EFF3EA
:1001F000088071460A4A104770B504000D00044893
:1002000000F03EF92900200000F050F900BEFEE7A2
:10021000E422000800BEFEE700BEFEE770470000D3
:08022000F901000800BEFEE731
:10022800B02400080000002080000020B02400084E
:100238000000000000000000800000202C010020C9
:080248000000000000000000AE
:1002500010B504000E4B1978FA20800000F0C2FBA4
:1002600001000C4B186800F0BDFB00F065F8002899
:100270000AD1032C0AD800222100013800F01EF810
:10028000054B1C60002002E0012000E0012010BDB1
:1002900008000020140000200400002010B5064AC9
:1002A000116810230B4313600320FFF7D1FF00F008
:1002B00097FB002010BDC0460020024070B505002D
:1002C0000C00032903D98B21184800F097F9002D61
:1002D00012DBAA081648C0329200115803231D40B1
:1002E000ED00FF263300AB409943A30134001C40CE
:1002F000AC400C43145017E0EDB20F222A40083AEC
:100300009208063292000B4B9C46624451680323CC
:100310001D40ED00FF200300AB409943A3011840AE
:100320000400AC400C43546070BDC046002200087D
:1003300000E100E000ED00E001380A4B98420FD8E0
:10034000094A506009490B6A1B021B0AC0200006BB
:1003500003430B620023936007331360002000E027
:1003600001207047FFFFFF0010E000E000ED00E01B
:1003700010B50400042806D0002804D02621FF313F
:10038000084800F03BF9042C05D1074A1168042302
:100390000B43136004E0044A136804218B43136089
:1003A00010BDC0460022000810E000E0014B1868B4
:1003B0007047C04614000020FEE7C04610B5030099
:1003C0000C4A1268002A02D10B490A4A1160094AF4
:1003D0001068033303229343C318084A934206D993
:1003E00001F0C6FA0C2303600120404201E0014AFB
:1003F000136010BD840000202C010020001C002090
:1004000001230360014B0B607047C0460C000020C5
:10041000F0B54F464646C0B487B00400019143563C
:10042000002B1FD10426301C211CABBE041C1CE079
:100430003E00102F00D91026002305E00022A2560E
:1004400002A9CA5401330134B342F7D302AA914638
:1004500000224946CA540425281C4946ABBE8046A2
:10046000BF1B00E0019F002FE2D1019807B00CBC38
:1004700090469946F0BDC04610B5FFF7C9FF10BDC4
:100480000FB400B583B004AB04CB019380210648C0
:1004900001F0A8FA002803DD01000348FFF7ECFF94
:1004A00003B008BC04B018478C00002070B50400ED
:1004B0000D001548FFF7E4FF21681448FFF7E0FF3F
:1004C00061681348FFF7DCFFA1681248FFF7D8FF07
:1004D000E1681148FFF7D4FF21691048FFF7D0FF0A
:1004E00061690F48FFF7CCFFA1690E48FFF7C8FF0D
:1004F000E1690D48FFF7C4FF0C48FFF7C1FF290071
:100500000B48FFF7BDFF70BD3422000844220008ED
:100510005422000864220008742200088422000883
:1005200094220008A4220008B4220008C422000873
:10053000CC22000810B500F001F810BD7047C0468D
:1005400010B51E4B5B680C221340042B07D0082B00
:1005500009D0002B22D11A4A1A4B1A6021E0184AFE
:10056000184B1A601DE0154B5C685A6880204002E9
:100570000240A40C0F210C400234DB6A1940013107
:10058000824206D10E4800F02DFA44430D4B1C6008
:1005900007E00D4844430B4B1C6002E0084A094B3E
:1005A0001A60064B5B681B090F221340074AD35C95
:1005B000044A1168D940116010BDC04600100240C5
:1005C00000127A001400002000093D00F422000807
:1005D00010B5FFF7EBFEFA21890000F003FAFFF7F0
:1005E000ABFE0420FFF7C4FE10BDC04610B5FFF7F8
:1005F00055FEFFF7EDFFFFF7A3FF10BD10B50A0092
:1006000001000248FFF73CFFFEE7C0460423000854
:1006100010B5104A1168104B0B4013600D4B1B684E
:100620009B01FBD40B4BA02292035A601A688021D5
:1006300049040A431A60074B1B689B01FBD5054917
:100640004B6803229343013A13434B60FFF778FF53
:1006500010BDC04600100240FFFFFFFE0B4A536969
:10066000802189020B4353619023DB051A683021F6
:100670008A431A601A680F2082431A60DA688A4334
:10068000DA60D9680A220A43DA6070470010024033
:1006900010B50E49CB6901221343CB618023DB05E2
:1006A0008C211960002199620139D9625A61084888
:1006B000C324A40001590902090A01518021090239
:1006C0000160D9680A43DA6010BDC04600100240DC
:1006D00000E100E0184B9968184A0A409A609A684D
:1006E0009A609A68F0218A439A609A689A60144BDB
:1006F0009A68EC390A439A6098680222104398601D
:1007000018680143196019680A431A600D4BC12229
:10071000920098580C490140995098580B49014053
:100720009950402180229950BFF34F8FBFF36F8FB4
:10073000603A1A607047C04600000140FFF0FFFFBA
:100740000004014000E100E0FFFF00FFFF00FFFFA9
:1007500010B50023254A1360254A1360254A13600B
:10076000254A1360FFF754FF2448FFF789FE244B06
:1007700019682448FFF784FEFFF770FFFFF788FF32
:10078000FFF7A8FF01249023DB051B69DB07FAD5DF
:100790001D48FFF775FE012C0ED11C4B40221A603C
:1007A000202140329950BFF34F8FBFF36F8F18480D
:1007B000FFF766FE01340FE0022C0DD1134B4021F0
:1007C00080229950BFF34F8FBFF36F8F603A1A604A
:1007D0001048FFF755FE013C9023DB051B69DB0742
:1007E000FAD40D48FFF74CFECDE7C04618010020B3
:1007F0001C010020200100202401002034230008D7
:10080000140000205C2300087423000800E100E0CD
:100810008023000890230008A023000810B580233F
:10082000DB051B69DB070BD50648FFF729FE802394
:10083000DB055A6A00225A621A6901218A431A6149
:1008400010BDC046B023000870B52D4B5B699B07F7
:1008500048D52C4B1B68002B0ED18023DB050021D3
:1008600059621868012202431A60274B1960254A11
:1008700013680133136030E0224B1B68012B2CD12D
:100880008023DB055B6A053B1F4C2360206800F07A
:1008900057F900F06FFF00221C4B00F099F900227D
:1008A0001B4B00F0ABFC00F0B9FF00F027F905008E
:1008B000206800F01DFF02000B000020154900F029
:1008C00087F900F0ABFF00F019F902002900124887
:1008D000FFF7D6FD00220B4B1A60094A516902232B
:1008E0000B435361064B5B69DB0707D50B48FFF7EA
:1008F000C7FD034A516901230B43536170BDC046D4
:10090000000401401C010020240100200000484098
:1009100000408F4060E38641C4230008DC230008C8
:1009200070B5284B5B695B074BD5274B1B68002BC9
:100930000ED18023DB050021596218680122024391
:100940001A60224B1960204A13680133136033E0A8
:100950001D4B1B68012B2DD18023DB055B6A053BFA
:100960001A4C2360206800F0EBF800F003FF00222F
:10097000174B00F02DF90022164B00F03FFC00F061
:100980004DFF00F0BBF80500206800F0B1FE02004A
:100990000B000020104900F01BF900F03FFF00F0B1
:1009A000ADF8020029000D48FFF76AFD0022064B52
:1009B0001A6001E0044B1B68024A516904230B438F
:1009C000536170BD00040140180100202001002087
:1009D0000000484000408F4060E38641E423000867
:1009E0007047C046002243088B4274D303098B42F0
:1009F0005FD3030A8B4244D3030B8B4228D3030CEF
:100A00008B420DD3FF22090212BA030C8B4202D390
:100A10001212090265D0030B8B4219D300E0090AB8
:100A2000C30B8B4201D3CB03C01A5241830B8B42C1
:100A300001D38B03C01A5241430B8B4201D34B03AA
:100A4000C01A5241030B8B4201D30B03C01A52410F
:100A5000C30A8B4201D3CB02C01A5241830A8B4294
:100A600001D38B02C01A5241430A8B4201D34B027D
:100A7000C01A5241030A8B4201D30B02C01A5241E1
:100A8000CDD2C3098B4201D3CB01C01A5241830995
:100A90008B4201D38B01C01A524143098B4201D3CF
:100AA0004B01C01A524103098B4201D30B01C01AFA
:100AB0005241C3088B4201D3CB00C01A5241830874
:100AC0008B4201D38B00C01A524143088B4201D3A1
:100AD0004B00C01A5241411A00D201465241104601
:100AE0007047FFE701B5002000F006F802BDC046E0
:100AF0000029F7D076E770477047C0464302590A8D
:100B00004300C20F1B0E00207E2B0EDD9D2B0DDC43
:100B1000802000040143952B0BDC9620C31AD9409A
:100B20000B005842002A00D118007047034BD01820
:100B3000FBE7963B99400B00F3E7C046FFFFFF7FC2
:100B400070B5002830D0C317C5185D40C40F280009
:100B500000F0F0FE9E231B1A962B0DDC9622D21A73
:100B600095406A02520AD8B25202C005520AE407FE
:100B700002432243100070BD992B19DC9922D21A2E
:100B80009540124A2A40690704D00F210D40042DD8
:100B900000D00432510103D50C4B1A409F231B1A7D
:100BA0009201520AD8B2DFE7002400200022DBE7DE
:100BB00005222E00121AB921D6402A00C91A8A40ED
:100BC000551EAA4135001543DBE7C046FFFFFFFB7A
:100BD000F0B556464D4644465F46F0B41D000E0340
:100BE0004C00CB0F87B0070092468146360B640D50
:100BF00098466AD06D4B9C4235D08022430F120438
:100C00001343F6001E43C3009946694B00279C46D8
:100C10000023644402932B0368001B0BED0F514625
:100C20009B46400D009500D178E0604B98426CD017
:100C30005B46DA004B0F802109040B4313439B46AC
:100C40005346D9005A4B9C46002360444246201A22
:100C50006A40924601901F430F2F00D9B0E05548DB
:100C6000BF00C0598746374300D088E0002399462B
:100C70000233082700260293CDE74346B346494690
:100C80000093029B009A9246022B00D0BFE1002104
:100C900053460122002689461A40444B0021360360
:100CA0000C0D2405360B2643434C1B0526401E43E2
:100CB0007600D207760816434846310007B03CBCA0
:100CC00090469946A246AB46F0BD330003434FD051
:100CD000002E00D1BCE1300000F02CFE03000B3BE5
:100CE0001C2B00DDADE11D220100D31A08393A00AA
:100CF0008F408E40DA40B9461643304B00279C4661
:100D0000002360444442029385E753465A46134306
:100D10002CD1002300219B46023397E70B4320D0C0
:100D20005B46002B00D19EE1584600F003FE030015
:100D30000B3B1C2B00DD8FE102005946083A914025
:100D40008B461D21CB1A5146D9400B0059460B4307
:100D500051469B469140194B9C46604440420023BB
:100D600074E7002300219B4601336FE703236DE7FF
:100D70000023994601330427002602934BE70323FF
:100D80000C27029347E70122D51A382D00DCB0E189
:100D900053461A4000210023002689467EE700239F
:100DA0008026994600223603004B77E7FF070000B4
:100DB00001FCFFFFFC230008FFFF0F80F30300008E
:100DC0005E4500D972E100D16DE1019B4D46013BCA
:100DD00001930023340002935B461E020B0E1E4358
:100DE0000B020393330C994633041B0C4946200035
:100DF0000093FFF7F7FD009B370043430600494689
:100E000020009846FFF774FE2C0C09040C43A04503
:100E100009D9E419731EA74200D95CE1A04500D8A6
:100E200059E1023EE4194346E41A49462000FFF71F
:100E3000D9FD0300009A80465343494620009B4653
:100E4000FFF756FE2A040904120C0A4393450DD9F4
:100E50004346D219013B974200D93AE1934500D865
:100E600037E102235B429C46D219E0445B46D21A2A
:100E70004346360433439B460399180C0B0C1D0064
:100E8000059309045B46090C0C001B041B0C44432E
:100E9000049159436B4368431B190D0CEB189C429A
:100EA00003D980246402A44660441C0C09041B047A
:100EB000090C20185D18824200D2DEE000D1D7E094
:100EC000161A029B9C465D1BAC459B415B42F61A81
:100ED000B74200D106E149463000FFF783FD009B91
:100EE00004004343494630009846FFF701FE2E0CAC
:100EF00009040E43B04509D9F619631EB74200D95B
:100F0000F3E0B04500D8F0E0023CF6194346F31A8E
:100F1000494618000293FFF765FD009B0600434316
:100F2000494602989846FFF7E3FD2D0409042D0C6D
:100F30000D43A84509D9ED19731EAF4200D9D6E07B
:100F4000A84500D8D3E0023EED1924042100434611
:100F50003143049E059A3000ED1A0B040C0C1B0C57
:100F600058436643534354439A19030C9B189E42BB
:100F700003D980225202944664441A0C00041B04D4
:100F8000000C14191B18A54250D34DD0012319434E
:100F9000964A019B94466344002B00DCF3E64A0723
:100FA00009D00F220A40042A05D00A1D8A4289412D
:100FB00049428B4411005A46D20108D55A468C4BFF
:100FC0001A4093468022D2009446019B6344894A8A
:100FD000934200DD5BE65A46C908500708435602B3
:100FE000514601225B058146360B5B0D0A4055E6F2
:100FF00080231B031E4211D05A461A420ED15E4670
:101000001E433603360B2A0089467B4B46E6032BEC
:1010100000D1E1E0012BBBD11A40BBE61E433603F1
:10102000360B4246744B39E6002BB1D07D194A1E6F
:10103000AF4252D91100A542A8D1039A9A42A5D134
:10104000A6E703003E00283B9E400023994654E655
:1010500000F070FC203041E603005246283B9A40E5
:101060000021934677E6504600F064FC20305EE6AF
:10107000029B0026AB4200D323E7039E0299B446AD
:1010800061448846B045B6415B467642F619B218CF
:10109000013B0291974213D290424FD800D18EE08B
:1010A000161A9B460DE7894500D28EE674084B461A
:1010B000F60735005B081D434B46DB0702938BE6C2
:1010C0009742EDD10399029CA142E5D93E1A9B4675
:1010D000F7E69846CAE61E00A5E6AC423ED874D0B4
:1010E000110053E70121494252E71C000EE71E00A0
:1010F0002BE71F2D3CDC20230A0058465B1B984041
:10110000EA4099400243481E81415E461143EE4049
:101110004B0709D00F230B40042B05D00B00191DE2
:1011200099429B415B42F61833023CD5534601225B
:1011300000211A40002601238946AFE502235B42C5
:101140009C46039CE344A446029B63449846A04506
:10115000B6417642F6190293B218B1E603988A1E98
:1011600041008142B6417642F619AD19039161E71B
:101170001F225242D31A5A46DA401300202D29D09A
:1011800040225846551BA8400143481E8141072074
:101190000B4318400026002809D00F2200261A40D1
:1011A0001900042ABBD10B0070077602360BDB084E
:1011B00003439946012253461A4000236EE50299E3
:1011C0008D42BBD89B4600267BE603989842C5D348
:1011D000110032E70020D7E780265B4636031E4326
:1011E0003603360B009A8946034B57E5FF03000090
:1011F000FFFFFFFEFE070000FF070000F0B55F469F
:1012000056464D464446F0B40D0399464E002B0B0E
:1012100087B00700924680469B46760DCC0F002E85
:1012200069D06D4B9E4235D05B468022DD001204B2
:10123000430F13432B439B46C3009846674B00273D
:101240009C460023664401934A4615035000D20F82
:1012500053462D0B400D914600D176E05E4A9042F8
:101260006CD080225B0F120413435C4AED0094465D
:101270001D4353460022DB00604449463618701C6B
:101280006140029017430F2F00D9AFE05448BF00D0
:10129000C759BF465B461F4300D088E000239B46EA
:1012A0009846023308270193CEE74946022A6AD0BE
:1012B000032A00D109E2012A00D0BBE1114000223B
:1012C000002300259046CCB200212D030A0D120503
:1012D0002D0B1543434A1B0515401D436D00E407C4
:1012E0006D0825434046290007B03CBC904699460E
:1012F000A246AB46F0BD034352D05B46002B00D163
:101300008AE1584600F016FB03000B3B1C2B00DD66
:101310007BE11D22D31A3A0001005D46DA4008390C
:101320008D4013008F402B439B46B8462E4B002721
:101330009C46002360444642019385E752462A4377
:101340002CD100250023022297E752462A4321D0C0
:10135000002D00D154E1280000F0ECFA03000B3B13
:101360001C2B00DD46E11D21CB1A51460200D9405D
:101370005346083A954093400D431B4A94466044B7
:101380004042002279E7012400220C40124B002544
:10139000904699E70025002301226EE703226CE7BF
:1013A00000239B4698460133042701934CE703230F
:1013B0000C27019348E700238025984600242D033D
:1013C000054B81E75D464346019A6FE75D4643461C
:1013D0002100019A6AE7C046FF07000001FCFFFFF9
:1013E0003C240008FFFF0F80F30300004246120C6C
:1013F00091461A0C9446424617044A461B041B0C9D
:101400005A43604690464A46424310000392624661
:101410001C003F0C7A437C4342440192220C9246CA
:10142000019A5244904506D9824680204002804667
:10143000C24450460390100C049048462404240CE7
:101440001204121905922A0C2D042D0C68432C004D
:10145000824648467C4350438146200C8046574391
:1014600057444744BA4503D9802040028046C144CE
:10147000380C3F04B84648442404240C01900498D6
:10148000A044404404905846000C81465846040449
:10149000200C8246070048465F434C464343604663
:1014A00060436446834650464443380C8446E418FF
:1014B0006444A34203D980235B029C46E34448462C
:1014C0003F04230C3F0C2404E419574668436F4340
:1014D00084464D46504655434243380C814662444B
:1014E0004A445B44944503D98020400284466544C5
:1014F00003983F04834604983F0C8446E344C34565
:1015000080414042824610048446019867448446E4
:101510006744A344BC46A345A4419946D4446442CD
:101520008742BF41D4458041E144A04699459B4153
:101530007F424042C8440743120CBA18A045A44158
:101540005F423B0064422343D71843467D19DB0DBD
:101550006D021D435B465A02059B1A43531E9A4176
:101560005B46DB0D1A4343465B021343EA0107D592
:1015700001225C0813402343EA07029E13436D08CF
:10158000574AB218002A4BDD580709D00F201840DF
:10159000042805D0181D98429B415B42ED180300BA
:1015A000E80104D54F4A15408022D200B2184E48B7
:1015B000824200DDE7E60124DB08680718436D027C
:1015C000530580462D0B5B0D0C407DE6802259466D
:1015D0001203114208D0154206D115432D03984637
:1015E0002D0B4C46414B6FE65D4615432D032D0BED
:1015F0003E4B69E603005546283B9D400023BCE670
:10160000504600F097F92030A8E60300283B9F40A1
:101610000023BB46984689E600F08CF9203073E63B
:101620000124A61A382E07DD00220C4000230025D5
:10163000904649E6029EA3E71F2E20DC20222C00C4
:101640001800921BF040944093400443581E83417D
:101650001C43F540630709D00F232340042B05D01A
:1016600023001C1D9C4292415242AD182B021FD5F3
:10167000012400220C4001230025904624E61F206F
:101680002C004042821AD440202E1CD04022961BAF
:10169000B5402B43581E83410720234318400025A3
:1016A000002809D00F2200251A401C00042AD8D196
:1016B000230068076D022D0B0124DB0803439846C5
:1016C0000C40002300E60025E3E7802201241203FA
:1016D00015432D0398462D0B0C40044BF4E5C046F2
:1016E000FF030000FFFFFFFEFE070000FF070000F2
:1016F00070B5002830D0C317C4185C40C50F200057
:1017000000F018F9174B184A1B1AD21A1F2A18DDB5
:10171000164AD21A9440002224035B05240B5B0D69
:101720000021100024030A0D1205240B1443104A53
:101730001B0514401C436400ED0764082C43210082
:1017400070BD210091400A000B21081AC4405B05BE
:101750002403240B5B0DE3E7002500230024002273
:10176000DEE7C0461E04000033040000130400003E
:10177000FFFF0F804200120E511C4302C9B270B528
:101780005D0AC40F012915DDE02189008C466D0733
:101790001B0B6244002128000D0D2D052B431C4D11
:1017A00052052B40520813435B00E4075B082343B8
:1017B000190070BD002A15D1002D1FD0280000F09F
:1017C000B9F80A281DDC0B232A001B1ADA40130083
:1017D0000200153295400F4A1B03121A52051B0BCB
:1017E000520DD7E7002D06D080221B0B12031343A6
:1017F0006D07094ACEE7084A0023CBE70022002301
:10180000C8E703000B3B9D402B000025E3E7C046E3
:10181000FFFF0F8089030000FF0700004B0070B539
:101820005E0D0C03751C640A420F6D052243C90F3F
:10183000C4006D0D012D2ADD3B4BF318FE2B1ADC85
:10184000002B42DD8001451EA841D2001043620FEB
:101850000243500704D00F201040042800D0043267
:101860008020C004104021D00133FF2B03D092010F
:10187000520ADBB201E0FF2300225202520ADB05CA
:1018800013435B00C9075B080B43180070BD002EB3
:1018900007D01443EFD08020D20080040243FF23FE
:1018A000D7E722430023002A03D00522D208FF2BCA
:1018B00003D05202520ADBB2DFE7002A32D0802086
:1018C000C00302435202520AD7E71800173014DB54
:1018D0008020000402431E20C01A1F280FDC2500B0
:1018E000124BF3189D406E1EB5419A402B001343D6
:1018F0002200C2401A430023ABE70023D5E70225AC
:101900006D42EB1A1500DD40202809D0084BF31872
:101910009A401443621E9441220000232A4398E710
:101920000022F6E70022A8E780FCFFFF82FCFFFF11
:10193000A2FCFFFF1C2101231B04984201D3000CD1
:1019400010391B0A984201D3000A08391B09984232
:1019500001D30009043902A2105C40187047C04648
:101960000403020201010101000000000000000068
:10197000014B18687047C04678000020002310B55E
:101980009A4203D0CC5CC4540133F9E710BD30B5A2
:1019900014009BB005001A00002C04DA8B230360AE
:1019A000012040421CE0822368469B008381002383
:1019B000009104919C4200D0631E02930593012381
:1019C00069465B42CB8128001E9B00F079F8431CDE
:1019D00001DA8B232B60002C02D00023009A1370B5
:1019E0001BB030BD07B5009313000A000100024888
:1019F0000068FFF7CCFF0EBD78000020F0B58E68C0
:101A000085B007000C00039201939E4243D89023B7
:101A10008A89DB001A423ED00325096923680198B0
:101A20005B1A029363695D43EB0F5D19029B6D10B6
:101A300001331B18AB4200D91D00530510D52900F6
:101A4000380000F037FB061E14D0029A2169FFF718
:101A500095FFA289194B134080221343A38112E002
:101A60002A00380000F086FB061E0CD121693800E0
:101A700000F0D4FA0C23402201203B60A3894042AD
:101A80001343A38117E0029B2661F6182660656167
:101A9000019EED1AA560019BB34200D21E003200E8
:101AA0000399206800F0A5FA0020A3689B1BA3609F
:101AB00023689E19266005B0F0BDC0467FFBFFFF7E
:101AC000F0B59FB0029005938B890F0016001B069E
:101AD00010D50B69002B0DD1402100F0EBFA3860D6
:101AE0003861002804D10C23029A01381360D8E031
:101AF00040237B61002306AD6B6120336B7610338E
:101B0000AB7634002378002B03D1A31B049312D0AF
:101B100003E0252BF9D00134F4E7A31B3200390090
:101B20000298FFF76BFF431C00D1B4E06A69049B85
:101B3000944663446B612378002B00D1ABE0012213
:101B4000002352426A6002A95432521801342B60B9
:101B5000EB60AB601370AB65534E2178052230000B
:101B600000F03CFA002807D00123801B83402A683C
:101B7000013413432B60EFE72B68DA0604D55322B8
:101B8000202102A8121811701A0704D553222B2104
:101B900002A81218117022782A2A03D0099B00206B
:101BA0000A210EE0059A111D12680591002A01DB39
:101BB000099204E05242EA60022213432B6001348E
:101BC0000BE02278303A092A04D84B4301349B18A1
:101BD0000120F6E7002800D0099323782E2B1ED190
:101BE00063782A2B0AD1059B02341A1D1B680592C3
:101BF000002B01DA01235B42079310E000230A2047
:101C00001A0001346B6021783039092904D8424325
:101C1000013452180123F6E7002B00D00792234E1F
:101C200021780322300000F0D9F9002806D04023A3
:101C3000801B83402A68013413432B6021780622DD
:101C40001B48661C297600F0C9F9002812D0194BF0
:101C5000002B06D10722059B0733934308330593D6
:101C600014E005AB00933A00134B2900029800E002
:101C700000BF07E005AB00933A000F4B2900029824
:101C800000F08AF80390039B013304D06B69039A38
:101C90009B186B6135E7BB890B985B0601D501206A
:101CA00040421FB0F0BDC0467C24000882240008DA
:101CB0008624000800000000FD190008F7B5170091
:101CC00001938A680B6900900C00934200DA1300BC
:101CD00022003B6043321278002A01D001333B607E
:101CE00023689B0602D53B6802333B6006252368C8
:101CF0001D401ED0230043331B785A1E9341226897
:101D000092061CD53020E1184331087021005A1C7E
:101D100045310978A2184332023311700FE02200D6
:101D20000123193201990098089EB047431C0ED038
:101D30000135E3683A689B1A9D42F0DBDAE722003E
:101D4000019943320098089DA847431C02D1012005
:101D5000404220E006232068E1683A6803400025FD
:101D6000042B03D18D1AEB43DB171D40A3682269B6
:101D7000934201DD9B1AED180027BD420AD02200D4
:101D800001231A3201990098089EB047431CDED007
:101D90000137F2E70020FEBDF0B58BB006920A00D5
:101DA00043320793059004920A7E0C00109B6E2A22
:101DB00000D1ABE011D8632A22D009D8002A00D183
:101DC000B5E0582A00D0C5E045310A70814A4FE09D
:101DD000642A1DD0692A1BD0BCE0732A00D1AAE076
:101DE00009D86F2A29D0702A00D0B3E020220968D0
:101DF0000A43226037E0752A1FD0782A33D0A9E041
:101E00000E001A684236111D196013683370A4E081
:101E100021681A68080606D4490604D5111D196000
:101E20000023D55E02E0111D19601568002D3BDA14
:101E30002D23049A6D42137036E021681A68080653
:101E400006D4490604D51568111D1960ADB202E02B
:101E5000111D196015685F4B227E039308276F2AB6
:101E60001DD00A271BE022007821453211705A4A02
:101E700019680392081D226818600D68100602D4C4
:101E8000500600D5ADB2D30702D520231A432260F5
:101E90001027002D03D1202322689A4322602300BB
:101EA000002243331A7002E00A274A4B0393636807
:101EB000A360002B09DB0422216891432160002DDF
:101EC00005D1049E002B11D07BE0002D79D0049E1B
:101ED00028003900FEF70CFE039B013E5B5C2800E6
:101EE00033703900FEF77EFD051EF1D1082F09D1B0
:101EF0002368DB0706D563682269934202DC30233E
:101F0000013E3370049B9B1B23612BE009681A6818
:101F1000080607D4490605D5111D19601368A28A61
:101F20001A8004E0111D1960136862691A600023A9
:101F3000049E236116E01A68111D196016680021BD
:101F40006268300000F04AF8002801D0801B606011
:101F5000636803E0260042363270012323610023C8
:101F6000049A1370079B09AA00932100069B059809
:101F7000FFF7A4FE431C02D10120404227E0236961
:101F8000320006990598079DA847431CF4D02368A2
:101F900000259B070FD4099BE068984217DA1800C8
:101FA00015E022000123193206990598079EB047D3
:101FB000431CE1D00135E368099A9B1A9D42F0DB8E
:101FC000E9E72600039B42361B7833708EE70BB09F
:101FD000F0BDC0468D2400089E240008C9B28218B6
:101FE000904204D003788B4202D00130F8E7002001
:101FF000704710B5884202D98B18984201D300234C
:1020000005E09B1A013A08D3995C8154FAE79342A0
:1020100003D0CC5CC4540133F9E710BD70B50500A2
:10202000002944D00C1F2368002B00DAE418280094
:1020300000F0D8F81E4A13681100002B02D163602B
:10204000146031E0A3420DD92268A018834203D165
:1020500018685B688218226063600C6024E0A2420A
:1020600003D813005A68002AF9D11E689819A042B3
:102070000BD12168711858181960824214D1106868
:102080005268411819605A600EE0A04202D90C2330
:102090002B6009E021686018824203D11068526801
:1020A0004118216062605C60280000F09CF870BDFF
:1020B00010010020032370B5CD1C9D430835060098
:1020C0000C2D01D20C2501E0002D01DBA94202D923
:1020D0000C23336048E0300000F084F8234B1C6888
:1020E0001A002100002913D00B685B1B0DD40B2BA9
:1020F00002D90B60CC181EE08C4202D163681360D9
:102100001AE04B6863600C0016E00C004968E9E7D0
:10211000174C2368002B03D1300000F051F82060E9
:102120002900300000F04CF8431C18D00323C41CD5
:102130009C43A0420DD12560300000F054F82000EF
:1021400007220B30231D9043C31A0ED05A42E2508F
:102150000BE0211A300000F033F8431CEBD10C23C4
:102160003000336000F03FF8002070BD1001002007
:102170000C010020F8B506000C001500002904D160
:102180001100FFF797FF040018E0002A03D1FFF7C2
:1021900045FF2C0012E000F027F885420ED92900F7
:1021A0003000FFF787FF071E07D021002A00FFF746
:1021B000E5FB21003000FFF731FF3C002000F8BDB7
:1021C000002370B5064C050008002360FEF7F6F802
:1021D000431C03D12368002B00D02B6070BDC04688
:1021E00014010020704770470B1F1A68101F002A47
:1021F00004DA891804390B68D018043870470000D5
:102200002E2E2F73797374656D2F7372632F737411
:102210006D333266302D68616C2F73746D333266A6
:102220003078785F68616C5F636F727465782E6375
:1022300000000000537461636B206672616D653A43
:102240000A000000205230203D2020253038580A56
:1022500000000000205231203D2020253038580A4F
:1022600000000000205232203D2020253038580A3E
:1022700000000000205233203D2020253038580A2D
:102280000000000020523132203D20253038580A0D
:1022900000000000204C52203D2020253038580AF4
:1022A00000000000205043203D2020253038580AEF
:1022B0000000000020505352203D20253038580A9D
:1022C000000000004D6973630A000000204C522F8B
:1022D0004558435F52455455524E3D20253038589D
:1022E0000A0000005B486172644661756C745D0AA7
:1022F00000000000000000000000000001020304D4
:102300000607080957726F6E6720706172616D650C
:10231000746572732076616C75653A2066696C65C8
:10232000202573206F6E206C696E652025640D0A70
:102330000000000054686973206973205061727452
:102340002032206F6620496E74726F647563746FFB
:102350007279204C61622E2E2E0A0000537973741C
:10236000656D20636C6F636B3A20257520487A0A8F
:10237000000000004C61746368204F70656E0A00B5
:10238000416374697665203D2032200A0000000018
:10239000416374697665203D2031200A0000000009
:1023A0004C6174636820436C6F73650A0000000021
:1023B0000A2A2A2A204F766572666C6F7721202AB6
:1023C0002A2A0A005041313A206E732025642C20BD
:1023D00066203D202564200A0000000050494E2060
:1023E000300A00005041323A206E732025642C20C0
:1023F00066203D202564200A00000000C00D000872
:102400008E0C0008940D0008840C0008940D000840
:102410009E0D0008940D0008840C00088E0C000826
:102420008E0C00089E0D0008840C00087A0C000831
:102430007A0C00087A0C0008F00F0008EC13000872
:10244000AC120008AC120008AA120008C41300085D
:10245000C4130008B6130008AA120008C413000829
:10246000B6130008C4130008AA120008CC13000811
:10247000CC130008CC130008CC150008232D302BFA
:102480002000686C4C006566674546470030313275
:1024900033343536373839414243444546003031CC
:0F24A0003233343536373839616263646566002C
:1024B000785634120400000001FFFFFF880000205E
:1024C0000000000000127A00000000000000000080
:1024D00000000000000000000000000000000000FC
:1024E00000000000000000000000000000000000EC
:1024F00000000000000000000000000000000000DC
:1025000000000000000000000000000000000000CB
:1025100000000000000000000000000000000000BB
:1025200000000000000000001800002032547698DF
:04000005080000BD32
:00000001FF
